:100000009EC50000B9C50000B7C500000C94CA2603
:10001000B3C50000B1C50000AFC50000ADC500000C
:10002000ABC50000A9C500000C94A5230C948D2439
:100030000C940816A1C500009FC500009DC50000D6
:100040009BC5000099C5000097C5000095C500003C
:1000500093C500000C9481238FC500008DC500005E
:100060008BC5000089C5000087C5000085C500005C
:1000700083C5000081C500007FC500007DC500006C
:100080007BC5000079C5000077C5000075C500007C
:1000900073C5000071C500006FC500006DC500008C
:1000A0006BC5000069C5000067C500000501098037
:1000B000A101850319012AB700150126B700950192
:1000C00075108100C0050C0901A101850419012AE0
:1000D000A002150126A002950175108100C005013E
:1000E0000906A1018506050719E029E71500250184
:1000F0009508750181020507190029EF15002501F2
:1001000095F075018102050819012905950575010C
:100110009102950175039101C005010906A1010530
:100120000719E029E7150025019508750181029559
:1001300001750881010507190029FF150026FF0038
:100140009506750881000508190129051500250186
:10015000950575019102950175039101C009023B56
:1001600000020100A0FA09040000010301010009D6
:100170002111010001224400070581030800010943
:100180000401000103000000092111010001226D9A
:100190000007058203200001120100020000000890
:1001A000534601000100010200010C0343006F00EF
:1001B00072006E0065000000100366006F006F00A3
:1001C0007300740061006E00000004030904000065
:1001D000000000000000000000000000000000001F
:1001E000000000000000000000000000000000000F
:1001F00000007E0F00D4FFFFFFC700000078000062
:100200000000000000002A2B280000000000000071
:1002100000000000000000000029000000002C1E6B
:100220003420212224342627252E362D3738271E28
:100230001F202122232425263333362E37381F044E
:1002400005060708090A0B0C0D0E0F1011121314E6
:1002500015161718191A1B1C1D2F3130232D3504A4
:1002600005060708090A0B0C0D0E0F1011121314C6
:1002700015161718191A1B1C1D2F3130354C00AEDE
:1002800000AF0000000000003E5B4F5B3E003E6B95
:100290004F6B3E001C3E7C3E1C00183C7E3C180010
:1002A0001C577D571C001C5E7F5E1C0000183C180C
:1002B0000000FFE7C3E7FF00001824180000FFE775
:1002C000DBE7FF0030483A060E0026297929260090
:1002D000407F05050700407F05253F005A3CE73C6D
:1002E0005A007F3E1C1C0800081C1C3E7F00142284
:1002F0007F2214005F5F005F5F0006097F017F00BF
:10030000006689956A0060606060600094A2FFA248
:10031000940008047E04080010207E2010000808C5
:100320002A1C0800081C2A0808001E1010101000C3
:100330000C1E0C1E0C0030383E383000060E3E0EEF
:10034000060000000000000000005F000000000741
:1003500000070000147F147F1400242A7F2A120053
:100360002313086462003649562050000008070332
:100370000000001C224100000041221C00002A1C39
:100380007F1C2A0008083E0808000080703000002A
:100390000808080808000000606000002010080439
:1003A00002003E5149453E0000427F400000724934
:1003B000494946002141494D33001814127F10006D
:1003C0002745454539003C4A494931004121110939
:1003D0000700364949493600464949291E000000B0
:1003E0001400000000403400000000081422410006
:1003F00014141414140000412214080002015909B5
:1004000006003E415D594E007C1211127C007F496E
:10041000494936003E41414122007F4141413E0071
:100420007F49494941007F09090901003E41415185
:1004300073007F0808087F0000417F4100002040D2
:10044000413F01007F08142241007F4040404000AE
:100450007F021C027F007F0408107F003E41414163
:100460003E007F09090906003E4151215E007F09D7
:100470001929460026494949320003017F0103003A
:100480003F4040403F001F2040201F003F40384079
:100490003F006314081463000304780403006159E7
:1004A000494D4300007F41414100020408102000F3
:1004B000004141417F0004020102040040404040ED
:1004C00040000003070800002054547840007F28B3
:1004D00044443800384444442800384444287F00C9
:1004E00038545454180000087E0902001824241CB3
:1004F00078007F080404780000447D40000020401C
:10050000403D00007F102844000000417F40000073
:100510007C04780478007C0804047800384444445F
:1005200038007C1824241800182424187C007C0827
:100530000404080048545454240004043F44240094
:100540003C4040207C001C2040201C003C403040AF
:100550003C004428102844004C9090907C00446457
:10056000544C4400000836410000000077000000B1
:100570000041360800000201020402003C26232646
:100580003C0000000000000000000000000000002F
:100590000000C0E0F0F8F81800C0F0FCFEFFFFFF1C
:1005A000FFFFFFFF7E00000000000000000080C091
:1005B000E0E0E0E0E0E0E0E0C0800000000080C0BB
:1005C000E0E0E0E0E0E0E0E0C080000000E0E0C06B
:1005D000C0E0E0E0E00000E0E0C0C0E0E0E0E0E03B
:1005E000C0800000000080C0E0E0E0E0E0E0E0E08B
:1005F000C0800000000000000000000000000000BB
:10060000E0F0F0F0E0ECEEF7F37020007C7C7C7E14
:10061000007E7E7E7F7F7F000080C0E07E5B4F5B40
:10062000FEC00000C000DCD7DEDEDED7DC00C0008C
:1006300000000000000000000000000000000000BA
:100640000000000000000000000000F8FCFEFFE0D9
:1006500000FFFFFFFFFFFF80FFFFFFFFFFFFFFFF28
:10066000FF1F0701000000000000000000FFFFFF67
:100670008100000000000081C3C3C30000FFFFFF32
:100680008100000000000081FFFFFF0000FFFFFF6E
:1006900001000000000000FFFFFF0100000000015A
:1006A000FFFFFF0000FFFFFF9D1C1C1C1C1C1C9D6E
:1006B000DFDFDF000000000000000000000000009D
:1006C0000F1F3F7F7F7F7F7F3F1E0C001F1F1F3F3D
:1006D000003F3F3F7F7F7F00307B7F78302020309E
:1006E000787F3B0003000F7F0F0F0F7F0F00030089
:1006F00000000000000000000000000000000000FA
:100700000000000000000000000000030F1F3F3F3A
:100710003F3F1F1F3F3F7F7F7F3F3F1F3F7F7F7FC9
:100720007F7C7878381C0F00000000000000010377
:100730000707070707070707030100000000010379
:100740000707070707070707030100000007070758
:100750000000000000000007070700000000000084
:100760000707070000000103070707070707070738
:100770000301000000000000000000000000000075
:100780000000000000000000000000000000000069
:100790000000000000000000000000000000000059
:1007A0000000000000000000000000000000000049
:1007B0000000000000000000000000000000000039
:1007C0000000000101010101010101010202020218
:1007D00002020202020303030303030303040404EB
:1007E00004040404050505050506060606060707B4
:1007F00007070708080808090909090A0A0A0B0B6C
:100800000B0C0C0C0D0D0D0E0E0E0F0F0F1010110A
:100810001111121213131414151516161717181890
:1008200019191A1A1B1B1C1D1D1E1E1F20202122F8
:1008300022232424252626272829292A2B2C2D2D3E
:100840002E2F30313232333435363738393A3B3C5B
:100850003D3E3F404142434445464748494A4C4D4E
:100860004E4F50515354555658595A5B5D5E5F6117
:100870006264656668696B6C6D6F707273757778AA
:100880007A7B7D7E8082838587888A8C8E8F919308
:100890009596989A9C9EA0A2A3A5A7A9ABADAFB12F
:1008A000B3B5B7BABCBEC0C2C4C6C9CBCDCFD1D414
:1008B000D6D8DBDDDFE2E4E7E9EBEEF0F3F5F8FABA
:1008C000FDFF00DA0281FFD9F1DB20A4A62EAF00E4
:1008D000A0C0D30000A1C8D30000AED580A81F409F
:1008E0008D142000808182838485868788898A8B05
:1008F0008C8D8E8F9091929394A0A1A2A3A4A5A673
:10090000A7A8A9AAABACADAEAFB0B1B2B3B4C0C1E9
:10091000C2C3C4C5C6C7C8C9CACBCCCDCECFD0D13F
:10092000D2D3D4003A002C206B007800556E646559
:10093000660041646A757374005261697365004CA6
:100940006F7765720044656661756C74004C6179FF
:1009500065723A2000290014001A000800150017DB
:1009600000E00004001600070009000A00E1001D75
:10097000001B000600190005000000000000002B0D
:10098000002C0022522A00130012000C0018001C38
:1009900000340033000F000E000D000B00E500389E
:1009A000003700360010001100000000000000E6D3
:1009B0000028002152010057001E001F00200035B2
:1009C0000201002D00210022002300350001002E2D
:1009D0000024002500260038000000000000003739
:1009E000002700235230023000270226022F002F5A
:1009F000023102210220021F021E022D02000022EB
:100A0000022302240225023100000000000000E65B
:100A1000002800010001003A003D00400043004072
:100A20007E01003B003E0041004400460039003C8E
:100A3000003F0042004500417E000000000000E24F
:100A400000E30001004A004B00437E5200427EA8B2
:100A5000004D004E004F0051005000A90039000029
:100A600000000000000000AA0000000000000001DB
:100A70007C2800235200000000000000000000005D
:100A80000000000000000000000000000000000066
:100A90000000000000000000000000000000000056
:100AA0000000000100000000000000000000000045
:100AB0000000000000000000000000000000000036
:100AC0000000000000000000000000000000000026
:100AD0007C0000010020202020616263646566675D
:100AE00068696A6B6C6D6E6F70717273747576770E
:100AF00078797A31323334353637383930524542A5
:100B0000545F2D3D5B5D5C233B27602C2E2F202006
:100B1000200102E001012B0103E0000102E00102DB
:100B2000E101012B0103E10103E0000102E2010107
:100B30002B0103E2000102E3200103E30000112482
:100B40001FBECFEFDAE0DEBFCDBF12E0A0E0B1E024
:100B5000E8E1F2E502C005900D92A03AB107D9F79D
:100B600026E0A0EAB2E001C01D92AF3CB207E1F777
:100B70000E94301F0C94BD2843CA80938606909330
:100B8000870608958093880690938906089521E04A
:100B900030E002C0220F331F8A95E2F78091880669
:100BA00090918906822B932BEDCF21E030E002C09B
:100BB000220F331F8A95E2F72095309580918806A1
:100BC0009091890682239323DDCF983090F586306B
:100BD00080F5E82FF0E086E0989FE00DF11D1124EC
:100BE00051E0E1FD54E0E0FD550FE2FD529583E058
:100BF000F695E7958A95E1F7EE0FFF1FEE0FFF1FC1
:100C0000E35AF94F20E030E070E04191DF01CB0181
:100C1000022E02C0969587950A94E2F78695880B76
:100C20008427852384278E932F5F3F4F24303105FF
:100C300061F70895292F983070F5863060F590E0BF
:100C400036E0239F800D911D1124682F677023E0EB
:100C5000969587952A95E1F7FC01EE0FFF1FEE0FA1
:100C6000FF1FE35AF94F40E050E080E0219130E06F
:100C7000062E02C0369527950A94E2F72170042EBD
:100C800001C0220F0A94EAF7822B4F5F5F4F443076
:100C9000510561F7089580E00895E0918F069091E5
:100CA0008E06E91302C080E008959F0157E0E59F9A
:100CB000F0011124E057F94F5181561306C05081BD
:100CC000581303C05581541305C02F5F3F4FF901DE
:100CD000E770E7CF81E0089580918F0620918E061E
:100CE000281301C0089501968770FACF90918A0663
:100CF0008095892380938A06282F277061F48917AD
:100D000051F090918C0692FF06C086958695869547
:100D10004CDF10928A0608958091830690918D068B
:100D2000892B909184069115C9F0892B90914301EC
:100D3000913021F490918B0697FD11C096E024EA42
:100D400032E040E09150F90150812F5F3F4F511147
:100D50004F5F9111F7CF41111092840608959EE1E3
:100D60002CEA32E0EECF8095982F8091830689237C
:100D7000809383060895972F7830C8F46630B8F4CE
:100D80008430C0F470E026E0929F600D711D112444
:100D900090E3899F600D711D1124FB01EE0FFF1F71
:100DA000EB5AF64F85919591282F822F089520E0D8
:100DB00090E0FBCF21E0FCCF803E9105D1F1C8F45B
:100DC0008133910509F481C048F48932910509F411
:100DD00071C08A32910509F47FC008958933910565
:100DE000E1F082389105C9F08533910509F45DC0C1
:100DF0000895843E9105D1F148F4823E910531F188
:100E0000833E910541F181EE90E00895863E910583
:100E1000C1F1873E9105F1F1089520918B06237071
:100E200009F064C020918C0623FF14C089E290E091
:100E3000089520918B0620FD45C030918C0630FF2F
:100E400009C024FD24C083EE90E0089520918B0614
:100E500022FDF7CF089520918B0622FD44C03091EA
:100E60008C0630FD43C024FFF5CF11C020918C06C5
:100E700021FFF0CF80918B0684FD09C087EE90E0C2
:100E8000089520918B0623FFE5CF24FFF7CF80E064
:100E900090E0089520918B0623FD2BC030918C06A5
:100EA00031FFE1CF84EE90E0089520918B0625FF7D
:100EB000D1CFBCCF20918B0625FD1EC020918C0682
:100EC00023FFC8CF89E390E0089520918B0626FF89
:100ED000C1CF8AE290E0089520918B0626FFBACF19
:100EE00081E390E0089582EE90E0089580EE90E036
:100EF000089586EE90E0089585E390E0089590913E
:100F00008B0692FF10C041E0282F2471243009F095
:100F100040E031E0282F2871283009F030E04317F5
:100F200011F02CE0822793FF10C041E0282F24719C
:100F3000243109F040E031E0282F2871283109F0F0
:100F400030E0431711F02CE0822730918C0630FFFF
:100F500010C051E0282F2171213009F050E041E00C
:100F6000282F2871283009F040E0541711F029E0AB
:100F7000822731FF10C041E0282F2171213109F073
:100F800040E031E0282F2871283109F030E0431784
:100F900011F029E0822794FF02C083FD877E089527
:100FA0000F931F93CF93DF9307DFEC01D23508F047
:100FB0004DC0D03508F0C3C0C03ED10530F5CD3CA2
:100FC000D10508F09AC0C83AD10578F4C53AD105E0
:100FD00008F090C0C130D10599F1CE010497813A53
:100FE000910570F1C0E0D0E02BC0CE01885A910984
:100FF0004B97C0F7C85AD0E0CC0FDD1FCC5CDD4F5B
:101000000990D881C02DD4641BC0D03490F4D03264
:1010100008F0A8C0C83ED10598F0CE0191509F318C
:1010200008F78D2F6CDF082F8C2F90E0C5DE902BFA
:1010300054C08C2F90E0C0DEDF70C82FD92BD06A4F
:10104000CE01DF91CF911F910F910895C03882E5B5
:10105000D807B8F5C03682E5D80708F056C0C034C6
:1010600082E5D807C8F4C03282E5D80708F047C047
:101070008C2F8695869520E2829FC0011124C37033
:1010800021E030E002C0220F331FCA95E2F7E901E8
:10109000C82BD92BDD68D4CF8C2F86958695877089
:1010A00020E2829FC0011124C37021E030E002C021
:1010B000220F331FCA95E2F7E901C82BD92BDC6850
:1010C000BFCFC03C82E5D80750F48C2F8F71C03A57
:1010D000D24580F5982F84EF906AEC01B1CFCE0114
:1010E000805C9245809708F07DCFDC2FDF71C0EFE8
:1010F000D06AA6CFA497D064A3CFD065A1CF8C2F00
:101100008F71D82FC1EFD06A9BCF8C2F8695869593
:10111000877020E2829FC0011124C37021E030E07B
:1011200002C0220F331FCA95E2F7E901C82BD92B61
:10113000DA6886CFE4DEC0E0D82FD06281CF8C2F72
:101140008F71DDDE93E0CC0FDD1F9A95E1F7DF7044
:10115000282F84FF04C090E1899F90011124C22FA1
:10116000D0696ECF8D2F8F71CADE082F8C2F90E043
:1011700023DE902BEC01E1CFCF92DF92FF920F9311
:101180001F93CF93DF936C0100918806109189061D
:101190008091860690918706082B192BCFE0D0E02E
:1011A00081E090E00C2E02C0880F991F0A94E2F7AC
:1011B00080239123892B61F4219790F7F12C8F2DB7
:1011C000DF91CF911F910F91FF90DF90CF90089505
:1011D000FC2EB6018C2FCFDDE3DE019769F3EFCF54
:1011E0001F93CF93DF93FC012581C081D181CE0174
:1011F000211571F0611561F0BFDF182F682FCE0146
:10120000E4DCBE01812FB7DDDF91CF911F910895FE
:1012100011DD182FF6CFCF93DF93EC01ADDFBE01C8
:10122000AADDBEDEDF91CF910895FC012481211556
:1012300099F080819181EFDF282F92959F709630F1
:1012400099F060F4925F9F70923030F4203FB1F0DB
:1012500038F481E0283E38F080E008959A5FF3CFBB
:1012600081E0243FC9F7089591E0213F09F090E023
:1012700081E0283E08F080E0892B089581E0089500
:1012800080E00895F894E82FE295EF70F0E041A136
:101290008F7021E001C0220F8A95EAF7922F909576
:1012A000942391A392A1822F892B82A378940895ED
:1012B000809198038160809398030895FF920F9323
:1012C0001F93CF93DF93182F062FF42E80E090E02A
:1012D00020912C06EC012196211571F08B3120F420
:1012E0002F2D402F612FD0D0CE01E69789F7CDB7B3
:1012F000DEB7E5E00C9412288B3110F4CE01E8CF74
:101300004B97EECF9BE0899F802D1124982F955FFE
:10131000973308F096E320912C06211104C08B31FD
:1013200028F48BE108959C3108F09BE108958091A9
:101330007B0691E0892780937B0610924601B8CF07
:1013400080917B06837031F0846080937B061092DD
:101350004601AECF089580917B06837031F08460A2
:1013600080937B0610924601A3CF089590917B064F
:10137000937051F080937C0660937D06493708F0A6
:1013800048E740937E0694CF0895EBE7F6E081812D
:1013900090E0438162810896E9CFEBE7F6E0818136
:1013A000438162818850990BE1CFEBE7F6E06281DF
:1013B00020E1620F08F46FEF8181438190E0D6CF86
:1013C000EBE7F6E0628120E1621B08F460E08181D6
:1013D000438190E0CBCFEBE7F6E0438120E1420F81
:1013E00008F44FEF8181628190E0C0CFEBE7F6E037
:1013F000438120E1421B08F440E08181628190E05A
:10140000B5CF20917F0630E1230F08F42FEF209312
:101410007F064ECF20917F0630E1231B08F420E0A9
:1014200020937F0645CFE0918006EF3F61F0E530E5
:1014300061F0E23061F4EF5FF0E0E65BFE4F808147
:101440008093800635CFE0E0F6CFE1E0F4CFE0E036
:10145000F3CFE0918006EF3F89F0E53069F0E230AC
:1014600019F0E1110DC0E3E0E150F0E0E65BFE4F62
:101470008081809380061CCFE1E0F6CFE3E0F5CFDA
:10148000E0E0F3CF539A0895FC01EE0FFF1FE80F41
:10149000F91FE951FD4F6183408322830895FC01C8
:1014A000AC014C5F5F4F8FEF61E39191892728E09A
:1014B00030E0982F990F87FF09C0892F8627215088
:1014C0003040B9F7E417F50781F70895892FF7CF72
:1014D00080912B06811571F0E0915306F09154062E
:1014E000309739F00190F081E02D309711F0099597
:1014F000089580E00895A3E0B0E0E1E8FAE00C94FC
:10150000F9272091E3023091E40228173907B1F05E
:101510008093E3029093E402E0915306F091540625
:10152000309761F00084F185E02D309739F023E0A9
:1015300029838A839B83CE01019609952396E2E055
:101540000C941528A3E0B0E0E8EAFAE00C94F9273F
:101550002091E1023091E20228173907B1F080931F
:10156000E1029093E202E0915306F0915406309725
:1015700061F00084F185E02D309739F024E0298373
:101580008A839B83CE01019609952396E2E00C9411
:10159000152890914301913099F0A4EAB2E0EFEF61
:1015A00090E02C91821759F01196EF3F19F4211118
:1015B00001C0E92F9F5F9630A1F7EF3FC1F4089576
:1015C00090918B0697FFE9CFE82FE695E695E69593
:1015D000803FA8F7F0E0E655FD4F877021E001C09D
:1015E000220F8A95EAF78281822B82830895FE2F4B
:1015F000FF0FFF0BEE55FD4FF8CF90914301913057
:1016000021F490918B0697FD0CC0E4EAF2E09191F1
:10161000891302C0DF011E9292E0EA3AF907B9F796
:101620000895E82FE695E695E695803FC8F7F0E047
:10163000E655FD4F9DEF81FD97EF80FF959582FD6B
:101640009295828189238283089580914201089531
:101650002FB7F8946091DD027091DE028091DF0275
:101660009091E0022FBF089580912B06811539F0EB
:10167000EFDF462F572FBC01CB01BA010895E8DFF9
:10168000DC01CB0140912D0650912E0660912F0672
:1016900070913006480F591F6A1F7B1FEDCF87E7F7
:1016A00097E7809300089093010888E19AE00FB6CD
:1016B000F894A895809360000FBE90936000FFCFD0
:1016C0000895FC012091D3023091D40226173707E8
:1016D00048F06115710529F49091E8009E77909388
:1016E000E8009B0190E02115310541F4911106C0FD
:1016F0008091E80082FF32C080E0089580919B03D2
:101700008115C1F18530C1F18091E80083FD30C0C1
:101710008091E80082FDECCF8091E80080FFE3CF6C
:101720008091F3004091F200582F2115310519F0F6
:101730004830510558F091E04830510509F090E0EB
:101740004091E8004E774093E800CDCF819180939F
:10175000F100215031094F5F5F4FE7CF80919B032C
:10176000811541F0853041F08091E80083FFC0CFC2
:1017700081E0089582E0089583E00895982F909382
:10178000E900891771F07091EC002091ED00509103
:10179000F00021FD09C09F5F973089F78093E90031
:1017A0000895762F242F50E03091EB003E7F309348
:1017B000EB003091ED003D7F3093ED003091EB0078
:1017C00031603093EB007093EC002093ED00509368
:1017D000F0002091EE0027FDDECF08958091CD022C
:1017E00087FF13C08091E80082FF06C08091E80067
:1017F0008B778093E800089580919B038111F2CF4D
:10180000089580919B038115D9F38091E80080FFB2
:10181000F8CF8091E8008E77ECCF2091E4003091F2
:10182000E50095E6A9012091EC00822F817020FF50
:1018300006C08091E80080FF06C080E008952091F6
:10184000E80022FD1AC080919B03811589F0853044
:1018500089F08091EB0085FD0FC02091E40030916C
:10186000E50042175307F9F29150E1F684E008953C
:1018700082E0089583E0089581E00895CF93DF9397
:10188000C8EDD0E088818F7E8883E7EDF0E080812D
:101890008160808384E082BF81E08093CC02888174
:1018A0008E7F8883E2EE10821092DA00A1EEB0E023
:1018B0001C9288818F77888388818068888388815B
:1018C0008F7D888319BC10929B031092CB021092DB
:1018D0009A031092CA02A0EE8C918B7F8C93888120
:1018E0008160888342E060E080E048DFA1EEB0E004
:1018F0008C918E7F8C93E2EEF0E08081816080831A
:10190000808188608083E0EE80818E7F8083888103
:1019100080618883DF91CF910895E8EDF0E08081C8
:101920008E7F80831092E2001092DA001092E10024
:10193000A0EEB0E08C9181608C9380818F77808362
:1019400019BCA7ED8C918E7F8C9380818F7E8083D4
:101950001092CC020895A0E0B0E0E1EBFCE00C9422
:10196000F1277C016B015A01809112060AE010E018
:101970008A3010F001E010E0C1E0D0E0B601C7010C
:10198000F5010995811115C021960C171D078CF0E2
:10199000CC9F9001CD9F300D300D112480E090E060
:1019A00045E34A95F1F70000019682179307C1F7C6
:1019B000E5CFCDB7DEB7EAE00C940D283BB1377F19
:1019C0002BB128604FB7F89487EE92E0FC010196A6
:1019D000508168E02BB9000000C057FF3BB9550F9C
:1019E000000000C000C000C03BB900C06A9591F77C
:1019F00053E08938950751F74FBF8FE594E0019781
:101A0000F1F700C0000008950F931F93CF93DF9369
:101A1000EB018A0190919B03943059F58093E90082
:101A20008FEF9091E80095FD06C095ED9A95F1F73E
:101A300000008150B1F78091E80085FF1AC0EDDE0B
:101A4000811112C08091E80085FD06C08091E800F8
:101A50008E778093E800F3CF88818093F100015066
:101A6000104011F02196EECF8091E8008E778093A0
:101A7000E800DF91CF911F910F910895CF93DF93ED
:101A8000EC0148E050E0BC0181E0BEDF88E0FE01EF
:101A9000A5EDB2E001900D928A95E1F7DF91CF912B
:101AA000089540E250E0BC0182E0AECF43E050E058
:101AB000BC0182E0A9CF90918C0692FB222720F9ED
:101AC000281771F080FB92F990938C0660918B0639
:101AD00070918C0684E090E00E94B92882E006C9EB
:101AE000089580914301813061F580918B0687FFD5
:101AF00028C012D98093AB0240E250E063E376E065
:101B00008AEA92E00E945D28892BD1F080E2EAEA1D
:101B1000F2E0A3E3B6E001900D928A95E1F7E0913F
:101B20005306F0915406309759F00480F581E02D6A
:101B3000309731F086E08093AA028AEA92E0099514
:101B40000895EAD88093A20248E050E065E576E087
:101B500082EA92E00E945D28892B91F388E0E2EA14
:101B6000F2E0A5E5B6E001900D928A95E1F7E091EB
:101B70005306F0915406309719F30280F381E02D5B
:101B80003097F1F282EA92E0DACFCF93C82F811535
:101B9000C1F08450813A70F580914301813021F485
:101BA00080918B0687FD0FC0E4EAF2E08081C817C0
:101BB000E9F0319682E0EA3AF807C1F78C2FE9DCC8
:101BC00090DFCF910895EC2FE695E695E695F0E04D
:101BD000E655FD4F828190E04C2F477021E001C017
:101BE000220F4A95EAF78223892B41F38C2F05DDDA
:101BF00078DFE4CF8C2F805E883060F4C77081E09E
:101C000001C0880FCA95EAF7C0918306C82BC0931C
:101C10008306D6CF8C2F855A833028F48C2F84529C
:101C2000990B69DCCECFC85ACB3158F6EC2FF0E0D7
:101C3000EE0FFF1FE659FD4F8081918183DCC1CFFC
:101C4000811509F1982F9450913A10F4D6DC49CFC0
:101C5000982F905E983050F4982F81E091FD84E0A9
:101C600090FD880F92FD82957ED8F1CF982F955ADE
:101C7000933018F480E090E03ECC885A8B3118F411
:101C800080E090E05FCC08951F93CF93DF93182FEF
:101C9000EB017BDF209731F4812FD2DFDF91CF91F1
:101CA0001F9108958FE99FE00197F1F700C00000B0
:101CB0002197F0CF811531F090918306982B909366
:101CC00083060FCF0895811511F04DD80ACF0895DE
:101CD0001092830680914301813099F480918B06A4
:101CE00087FF0FC0ECEAF2E08EE111928A95E9F7E6
:101CF00080E090E000DC80E090E024DC10928D0633
:101D0000F0CEE4EAF2E086E0F0CFE2DF88E19AE0AC
:101D10000FB6F894A895809360000FBE9093600072
:101D2000FFCFAAE2B0E0E7E9FEE00C94F8278DECE3
:101D300092E0FC0101962091F100208322E0853D94
:101D40009207B9F78091CE02893009F457C0C8F4E0
:101D5000823009F4B2C0833009F482C0813081F14D
:101D60008091E80083FFE6C08091CD029091CE0281
:101D70009A3008F0DFC0E92FF0E0E154F74D0C9401
:101D80004E288A3009F489C08B3051F78091CD02FA
:101D9000813231F78091D1029091D202892B01F7E3
:101DA0008091E800877F8093E80018DD81E09091C2
:101DB000CF02911101C080E08093430189DFD0CF31
:101DC0008091CD02813A61F68091E800877F80930F
:101DD000E8008091D1029091D202892B59F060E005
:101DE00080E090E070E06DDC8091E8008B7780937C
:101DF000E800B6CF68E085ED92E0F4CF8091CD02A7
:101E0000813209F0ADCF8091D1029091D202029738
:101E100008F0A6CF8091E800877F8093E80080914A
:101E2000E80082FF18C02091F3008091F200922F09
:101E3000029731F48091F100813011F0863021F465
:101E40008091F100809342018091E8008B7780932C
:101E5000E800C4DC85CF80919B038111E0CF80CF67
:101E60008091CD02813A09F07BCF8091D10290918F
:101E7000D202892B09F074CF8091E800877F80938C
:101E8000E8008091E80080FFFCCF809143018093BF
:101E9000F1008091E8008E77DACF8091CD02813217
:101EA00009F05ECF8091E800877F8093E80096DCA0
:101EB0008091D0028093410153CF8091CD02813A2D
:101EC00009F04ECF8091E800877F8093E8008091F1
:101ED000E80080FFFCCF80914101D9CF803889F0A4
:101EE000823841F58091D1028F70873018F5809348
:101EF000E9008091EB0085FB882780F91092E900CA
:101F000006C080919A03880F9091CA02892B909104
:101F1000E800977F9093E8008093F1001092F10021
:101F20008091E8008E7723C0811116C08091CF0286
:101F3000813009F18091E80083FF0AC08091E800B8
:101F4000877F8093E8008091EB0080628093EB00B4
:101F5000AA96E3E00C941428823061F78091CF02B6
:101F6000811579F01092E9008091E800877F8093D5
:101F7000E80034DCDFCF933009F080E080939A03EF
:101F8000F1CF8091D1028F70282F2150263090F60A
:101F90008093E9002091EB0020FFE4CF933031F4EF
:101FA0008091EB0080628093EB00DCCF9091EB009E
:101FB00090619093EB0021E001C0220F8A95EAF72F
:101FC0002093EA001092EA008091EB008860EBCF4A
:101FD0008111B0CF8091CF028F77182F8091E300CD
:101FE0008078812B8093E3008091E800877F809345
:101FF000E800F4DB8091E80080FFFCCF8091E300F3
:1020000080688093E30083E0111101C082E0809337
:102010009B0390CF8058823008F08CCF2091CF0264
:102020003091D0022C3D83E0380789F583E08A8324
:102030008AE289834FB7F894DE01139620E03EE0F0
:1020400051E2E32FF0E050935700849120FF03C04A
:1020500082958F703F5F8F708A30B8F0895C8D9366
:102060001D922F5F243169F74FBF8091E800877F71
:102070008093E8006AE270E0CE01019622DB809155
:10208000E8008B778093E80055CF805DE8CF832F01
:1020900090E08330910519F160F48130910509F4E5
:1020A0006CC08230910509F045CF8BE3EDE5F1E09E
:1020B00029C02091D1023091D2028132910509F4D8
:1020C00053C08232910509F035CF2130310508F433
:1020D0005CC009F02FCF8DE6ECEAF0E013C0822F50
:1020E00090E0213099F182309105B9F1009709F023
:1020F00021CFEAECF1E0E4918E2FEAECF1E00097D9
:1021000009F418CF2091E800277F2093E800209160
:10211000D3023091D4028217930708F49C0140E067
:1021200021153105B1F5411134C08091E80082FDDF
:10213000A6CF80919B03811509F4A1CF853009F4C6
:102140009ECF8091E80083FFF0CF99CFE8EBF1E0DC
:10215000E4918E2FE8EBF1E0D2CFEAEAF1E0E491EE
:102160008E2FEAEAF1E0CBCF2130310550F009F0B3
:10217000E1CE89E0E8E8F1E0C5CF82E1E8E9F1E00D
:10218000C1CF89E0EFE6F1E0BDCF84E4E9E1F1E021
:10219000B9CF80919B03811509F471CF853009F483
:1021A0006ECF8091E80083FD6ACF8091E80082FDC8
:1021B000BCCF8091E80080FFB3CF4091F3008091C5
:1021C000F200942F2115310519F08830910550F057
:1021D00041E0089709F040E08091E8008E77809315
:1021E000E8009ECF44914093F1003196215031098F
:1021F0000196E8CF803809F09DCE8091E800877F76
:102200008093E8008091CB028093F10089CE811108
:1022100091CE8091CF02182F823008F08BCE809122
:10222000E800877F8093E8001093CB02D7DA11157E
:1022300099F084E080939B0342E061EC81E09EDAB8
:1022400042E261EC82E09ADA80919B03843051F49F
:1022500082E0809344016ECE8091E30087FDE9CF58
:1022600081E0E8CF81E0F5CFA0E0B0E0EAE3F1E182
:102270000C94F2279C01F9019491911509F440C046
:10228000E9012196913009F055C0FE018491982F03
:102290002196813069F4FE0184912D5F3F4FE90161
:1022A00060E570E0893311F060E070E0EDDC08C0BB
:1022B000823041F4FE0184912D5F3F4FE90165DCDE
:1022C0009E01D9CF833039F4FE0184912D5F3F4FB9
:1022D000E901B6DCF5CF843089F4FE0194912D5FDD
:1022E0003F4FE90120E030E08AE0492F4053550B91
:1022F0004A30510550F02115310599F49111E0CF84
:10230000CDB7DEB7E9E00C940E28829FB001839F21
:10231000700D11249A01260F371FFE01949121960A
:10232000E4CFEFE9FFE03197F1F700C00000215062
:102330003109E1CFE92FF0E0E250FE4F8491B82E51
:10234000292F26952695269530E0F901E251FE4F7A
:10235000E4909770F12C092E02C0F594E7940A944A
:10236000E2F7F901E252FE4FC490D12C092E02C0CF
:10237000D594C7940A94E2F722533E4FF901049191
:1023800010E002C0159507959A95E2F7E0FE02C0AD
:1023900081EEFBDBC0FE02C086EEF7DB60E070E0A2
:1023A0008B2D72DCC0FE02C086EE4ADCE0FE02C06D
:1023B00081EE46DC00FF84CF60E070E08CE276CFF7
:1023C000CF92DF92EF92FF921F93CF93DF9300D0D3
:1023D00000D0CDB7DEB7C090E805D090E905E09019
:1023E000EA05F090EB0534D9DC01CB018C199D098D
:1023F000AE09BF0911E084369105A105B10568F168
:1024000033D9DC01CB010296A11DB11D89839A83CA
:10241000AB83BC83809132019091330188509A4FF5
:1024200020913101422F50E0253008F044E09E0118
:102430002F5F3F4FB9010E946A2883E090E00E941D
:102440006727182F811549F003D96093E805709329
:10245000E9058093EA059093EB05812F0F900F908B
:102460000F900F90DF91CF911F91FF90EF90DF9031
:10247000CF9008956F927F928F929F92AF92BF926A
:10248000DF92EF92FF920F931F93CF93DF93D82E9B
:10249000EB013A017801A801B901C3010E945D284E
:1024A0008C0188809980AA80BB80D2D8DC01CB01C6
:1024B00088199909AA09BB0984369105A105B105B6
:1024C00010F4012B09F10D2DDD0C110B88E0080231
:1024D000F0011124E75EFE4F8181928188509A4F6E
:1024E0002081422F50E0E216F10408F4A701B30165
:1024F0000E946A28C8010E946727811531F0A8D878
:10250000688379838A839B8381E0DF91CF911F91D8
:102510000F91FF90EF90DF90BF90AF909F908F90C2
:102520007F906F9008950F931F9304E010E02DEFBC
:1025300035E0AC016CEE75E082E09CDF1F910F91FD
:102540000895A9E0B0E0E7EAF2E10C94F72788E00B
:10255000EBE7F6E09E012F5F3F4FD90101900D920E
:102560008A95E1F7198609E010E025E036E0CE0112
:102570000196AC0164EE75E084E07CDF2996E4E02E
:102580000C941328AF92BF92CF92DF92EF92FF92FA
:102590001F93CF93DF9300D000D00F92CDB7DEB75B
:1025A0005B0180E090E00E946727182F811509F4F5
:1025B00060C080911C01482F50E0811141E0609182
:1025C0001D0170911E0168507A4FCE0105960E9440
:1025D0006A28C090F405D090F505E090F605F090DB
:1025E000F70536D8DC01CB018C199D09AE09BF096E
:1025F00084369105A105B10538F489EF95E00E9474
:102600004F0A9D818917A9F181E090E00E94672718
:102610008115E9F180912401482F50E0853008F0C0
:1026200044E0609125017091260168507A4FCE01F7
:1026300001960E946A2889EF95E00E944F0A9D81C9
:10264000891325C005D86093F4057093F505809330
:10265000F6059093F70589819A81AB81BC818093BF
:10266000F0059093F105A093F205B093F30581E096
:102670000FC08091F9059091FA05A091FB05B091EA
:10268000FC0589839A83AB83BC831111E4CF80E07E
:102690004091F0055091F1056091F2057091F305BC
:1026A000F50140835183628373830F900F900F90E5
:1026B0000F900F90DF91CF911F91FF90EF90DF90DF
:1026C000CF90BF90AF90089548E050E067E170E090
:1026D0008BE796E00E94902810929803089585E079
:1026E00080937B068091470190914801A091490118
:1026F00080937C0690937D06A0937E068FE780935F
:102700007F068FEF80938006DFCFA0E0B0E0EBE89C
:10271000F3E10C94F1270E94340BAB01BC01409310
:102720008F03509390038093910370939203D09101
:10273000970380914601823009F444C1D0F481119D
:1027400020C0109200014093930350939403609330
:1027500095037093960380917B06837021F080919E
:102760007B06869586958093970381E0809346014A
:1027700003C0833009F430C1CDB7DEB7EAE00C9472
:102780000D2880910401D8132CC090917B06937082
:102790002091030130E081E09217130609F480E0F4
:1027A000809302018091800690910101981739F081
:1027B0008093010140E060E080E00E945E09D1303A
:1027C00091F0DF3F09F4CEC0D11109C08091020120
:1027D000811529F040E060E080E00E945E0980E021
:1027E00025C081E0DDCF809100010E948209A82EE2
:1027F000092F40917C06B0907D06E0917E06F0E0C6
:10280000EE53F84FB11024C0E491CE2F1E2FDE2ED0
:10281000EA2CF12C90912C060E1511F008F081C0D5
:1028200081E0911509F49CC00B31C8F6909100012C
:102830009F5F9093000181119FCF82E080934601BA
:1028400080910201811198CFD11196CF83E08ECF74
:10285000E491CE2F86E0489F700111242FEF30E0E5
:10286000C701B9010E94D527440F551FF5E5F69F12
:10287000C001F79F900D1124481B842F880F480F2B
:10288000D901AB19B109EA9FC001EB9F900D11244A
:10289000192FB49E60011124CD2CD12CD901AC1973
:1028A000BD096D01EC9DD001ED9DB00D112463308B
:1028B000710569F16901C41AD108A601B49E6001CD
:1028C000B59ED00C1124CD2CD12C2C193D09E29FA2
:1028D000A001E39F500D1124D52E2CEFE21623E02A
:1028E000F20658F461307105B1F06230710509F0FB
:1028F0008FCFC92F152FDE2E8BCF6430710571F06D
:102900006630710509F484CFD92E1B2F81CFDB2EC1
:10291000C92F1E2F7DCFDE2ECB2F7ACFC52FD92EDC
:10292000F8CFF701E651FE4F80812091010182230B
:1029300039F0F701911541F08BE1E816F1044CF004
:102940008FEFE81AF80A66CF8BE1E816F104C4F3BA
:102950007B97212F4D2D6C2FCF010E94440AF0CF81
:10296000063363CF90919403A0919503B0919603A1
:10297000892F9A2FAB2FA69597958795A695979512
:102980008795837090E0A0E0B0E082309105A105CA
:10299000B10589F083309105A105B10579F040E0DA
:1029A00060E010979040814059F464E180E00E941B
:1029B0005E0982E0DBCE44E160E0F8CF44E164E10F
:1029C00084E1F5CFD093040180917B0683708093DE
:1029D00003010E94DE0C3ACF80919803811174DECE
:1029E000C0909303D0909403E0909503F0909603E9
:1029F00080912B06811579F00E94280B6C197D09B6
:102A00008E099F09603171058105910508F4B4CEE6
:102A100010924601B1CE0E94340BF0CFAB0124E6F8
:102A200030E0BC0188E70E949E259C0181E0232BB9
:102A300009F080E008958091E2058115F1F00E948F
:102A4000280BDC01CB01805A9541AF4FBF4F8093DB
:102A5000DB059093DC05A093DD05B093DE05809146
:102A6000DF0581110AC062E070E080E892E0D6DF05
:102A7000811519F081E08093DF0508958091E205CA
:102A8000811561F08091DF05811541F062E070E011
:102A90008EE792E0C3DF81111092DF050895CF9396
:102AA000DF93682F81E06A3019F06D3029F480E0FF
:102AB00072D0DF91CF9108958091AD039091AE03D4
:102AC00026E0FC01A9E8B3E001900D922A95E1F718
:102AD00026E0603E08F455C0FC0111922A95E9F702
:102AE000C091AD03D091AE0346E050E0BE0189E84D
:102AF00093E00E945D289E01275D3340892B41F1C0
:102B0000C90145E0969587954A95E1F741E050E087
:102B1000BA0102C0660F771F8A95E2F7CB01609178
:102B2000D9057091DA05862B972BB9016B5F7F4F22
:102B3000E5E076956795EA95E1F702C0440F551FE9
:102B40006A95E2F7842B952B8093D9059093DA054B
:102B50002A5F3F4F4091AF03642F70E0C9010E948C
:102B6000D527481B463010F4240F311D323010F0A9
:102B700020E030E029523C4F2093AD033093AE0368
:102B800098CF629FB00111246E577D4F46E050E010
:102B90000E945428A5CFCF93382FE091AD03F09138
:102BA000AE03E75DF3402091AF03622F70E0CF01E9
:102BB0000E94D527281B822F311561F066E00E9404
:102BC0002028C82FC11102C0CF910895C15080E2C2
:102BD00066DFF8CF8E0F9F2F911D923010F080E0AE
:102BE00090E089529C4F8093AD039093AE03ECCF5D
:102BF000CF93DF93EC01FE018491811103C0DF913B
:102C0000CF9108954CDF2196F6CFF2DF81E0C3CF5C
:102C10001F921FB61F9211248F939F93AF93BF9360
:102C200080919903811113C08091DD029091DE02A1
:102C3000A091DF02B091E0024196A11DB11D8093E9
:102C4000DD029093DE02A093DF02B093E002BF9119
:102C5000AF919F918F911F901FBE1F9018952FB716
:102C6000F8948091DD029091DE02A091DF02B09194
:102C7000E0022FBF0895CF93DF93EC01F0DF8C1BB0
:102C80009D0BDF91CF910895ACE0B0E0EAE4F6E16E
:102C90000C94F027FE013196DF0188E01D928A95A1
:102CA000E9F78AE2C82E82E0D82E7F01AE2E9F2C53
:102CB00004E312E0F60181916F018F3F09F43DC0FA
:102CC000F894E82FE295EF70F0E021A18F7041E0D9
:102CD00001C0440F8A95EAF7922F942B91A392A1F9
:102CE000842F8095892382A3789400C0EEE2F2E0DD
:102CF00031E0B12C21912F3F79F0A22FA295AF7036
:102D0000A05EB0E08C9190E02F7002C09595879501
:102D10002A95E2F780FF8AC080E0B82A330F0E17A9
:102D20001F0741F7F60182918F3F11F00E9442097F
:102D300080EA8A95F1F7F701B0828FEFE81AF80A76
:102D40008EE292E08C159D0509F0B4CF48E050E08A
:102D50006A2D792D83E296E00E945D28009749F064
:102D600028E0EA2DF92DA3E2B6E001900D922A9514
:102D7000E1F70091220610E0065E194F892B09F455
:102D800057C081E0809319066ADF809317069093FD
:102D9000180680912B06811509F4A2C07E0189E0F6
:102DA000E80EF11CF70184E011928A95E9F7809111
:102DB00012068A3008F05FC042EC52E1B701C80148
:102DC0000E94AB0C811509F47AC043E952E1B701C6
:102DD000C8010E94AB0C811509F471C040EE51E1AD
:102DE000B701C8010E94AB0C811509F468C041EA23
:102DF00052E1B701C8010E94AB0C811509F45FC014
:102E0000109212068091160690E044E050E0B7015F
:102E1000865E994F0E945D2821E020931506892B3C
:102E200009F03FC02C96EBE00C940C28832F75CF53
:102E300080911906811509F4ACCFE0901706F09047
:102E400018060DDF8E199F09059708F4A2CF44E0FC
:102E500050E063E276E0C8010E945D28892B41F0D2
:102E600084E0E3E2F6E0D80101900D928A95E1F763
:102E7000109219068ECFC0901306D0901406EFDE84
:102E80008C199D09843F914008F096CF80911506DA
:102E9000811541F2F70184E011928A95E9F71092C9
:102EA0001506E0911606F0E0E65EF94F89859A85F1
:102EB000AB85BC8580839183A283B383B3CF80919C
:102EC00012068F3F31F4CBDE8093130690931406E5
:102ED000DDCF8F5F809312068A3008F493CFF3CF53
:102EE000E0901606F12CC701865E994F7C01F8012F
:102EF00080819181A281B3818093F9059093FA0535
:102F0000A093FB05B093FC0589EF95E00E944F0A62
:102F10008093F8058091FD059091FE05A091FF0535
:102F2000B0910006F70180839183A283B383C090A0
:102F30000106D0900206E0900306F090040680910E
:102F40000E0690910F06A0911006B0911106C816BA
:102F5000D906EA06FB06B1F0C0920E06D0920F0623
:102F6000E0921006F09211060E94280BC61AD70AAA
:102F7000E80AF90AC0922D06D0922E06E0922F069A
:102F8000F092300688E0E5E0F6E0ABE7B6E00190CD
:102F90000D928A95E1F746CFFF920F931F93CF933F
:102FA000DF93C62FD42FF22E8115A9F060937906F6
:102FB00056DE8093E5029093E60281E0C1FD84E055
:102FC000C0FD880FC2FD82950E945A0ECDB7DEB7B4
:102FD000E5E00C94122880917906681333C00091C3
:102FE000E5021091E6023BDE801B910B883C9105C7
:102FF00048F51D2F105ECD17A1F0C77001E0802F9E
:1030000001C0880FCA95EAF70E94630E183048F491
:103010008D2F877001C0000F8A95EAF7802F0E94DC
:103020005A0E60E070E08F2D0E94440E81E0D1FDC9
:1030300084E0D0FD880FD2FD8295183038F60E94CA
:10304000630EC4CF81E0C1FD84E0C0FD880FC2FDE6
:103050008295F5CFA0E0B0E0E0E3F8E10C94F3272F
:103060007C01FC018481811509F487C061E0C701FE
:103070000E94F008EC01F7018581811509F44AC02E
:1030800091819093780690819093770690E2909347
:103090004501C0937506D09376069E0130523032BA
:1030A000A8F49681903108F45DC4EC2FF0E0ED3384
:1030B000F10528F4EB52F54FE491E0934501C23459
:1030C0009EE7D90751F48BE19BE042C09E0130544A
:1030D000303198F49681903140F7C3349EE7D90798
:1030E00008F03EC4C0349EE7D90781F1C1349EE7A1
:1030F000D90709F58BE29BE02BC09E0131503F318F
:10310000A0F29E01205A32452032310508F42AC42B
:10311000FE01CDCFC2349EE7D90709F423C408F0DD
:1031200021C4C0349EE7D90709F41CC4C1349EE70A
:10313000D90709F417C4FE01E851FC47E730F1054F
:1031400008F010C4E753F74D0C944E2885E39BE03C
:103150008BD808C426E241EE61EE1EDF80918A061C
:10316000877059F0F7018581811539F080918C06BF
:1031700082FF03C082E00E947606CDB7DEB7E8E0AA
:103180000C940F2827E245EE65EEE7CF26E241EEEC
:1031900060EEE3CF27E245EE64EEDFCF26E241EEBC
:1031A00062EEDBCF27E245EE66EED7CF28E241E0C4
:1031B000EBCF80918B06816080938B0660918B06AC
:1031C00070918C0684E090E00E94B9280E94680EFD
:1031D000C5CF80918C06886080938C06EFCF80915C
:1031E0008B068260E9CF80918B068460E5CF809169
:1031F0008B068860E1CF80918C068160EDCF809155
:103200008C068260E9CF80918B068061D5CF80915A
:103210008B068062D1CF80918B068064CDCF0E94D7
:10322000680E80918B068068C7CF80918B068C607A
:10323000C3CF80918C068360CFCF80918B068E7F29
:10324000BBCF80918C06877FC7CF80918B068D7F07
:10325000B3CF80918B068B7FAFCF80918B06877F1A
:10326000ABCF80918C068E7FB7CF80918C068D7FFF
:10327000B3CF80918B068F7E9FCF80918B068F7D01
:103280009BCF80918B068F7B97CF0E94680E809199
:103290008B068F7791CF80918B06837F8DCF809126
:1032A0008C068C7F99CF90918B06892F8B7F92FF14
:1032B0008460877F92FF88607FCF80918C06982FF3
:1032C000909590FB80F990FB81F986CF90918B06C9
:1032D000892F8F7B96FF80646FCF0E94680E90913C
:1032E0008B06892F97FB87F9805866CF61E08EE0C7
:1032F00090E00E949F2862CF60E0F9CF90918B060A
:10330000892F8F7E94FF806157CF90918B06892FF4
:103310008E7F90FF816050CF90918C06892F877FA0
:1033200093FF886059CF89E24DC389E25BC38091E6
:1033300083068272FE01E054F847EF30F10508F091
:1033400068C0E053F74D0C944E288272FE01E052A3
:10335000F847EB30F10508F05CC0E152F74D0C94F2
:103360004E280E949709FACE811591F10E94AB096F
:10337000F5CE811591F10E94CD09F0CE811591F124
:103380000E94E009EBCE811591F10E94F609E6CE8C
:10339000811591F10E940A0AE1CE80917B0683702B
:1033A00011F41092460180917B068C7F816080939E
:1033B0007B060E945809D2CE80917B06837011F063
:1033C0001092460180917B068C7FF1CF811571F2BE
:1033D0000E94A009C3CE811571F20E94C509BECE1C
:1033E000811571F20E94D509B9CE811571F20E9442
:1033F000EB09B4CE811571F20E94010AAFCE81159E
:1034000029F00E94290AAACE8115D9F30E94130A35
:10341000A5CE9E01205E324520323105A0F49111E7
:1034200024C0CF7181E090E002C0880F991FCA9537
:10343000E2F7EC01682F83E090E00E949F28CE0124
:103440000E94BD058BCE911581F1CB358CE7D80755
:1034500011F1CC358CE7D80799F0CA358CE7D8073D
:10346000C1F0C1308CE7D807F1F0C3308CE7D80742
:10347000A1F0C115DC47C9F40E94680E0E944F0BF1
:1034800080918C06002482FF0394802D0E945B0DA6
:1034900065CE81E0FBCF80E0F9CF6FEF7FEF80E07A
:1034A00090E00E94B9280E94850EF70100811181E9
:1034B000911509F459C0C8010E94BC08C82F682F93
:1034C000C8010E94E505B8018C2F0E94BB060E942E
:1034D000D007D82FC92FF701D580068102950F702C
:1034E00080918A06877001F1CD2CD114F1F0892FDB
:1034F000807F803461F08D2F805E8830A8F0892F26
:10350000807E803221F4D23078F0011569F080910C
:103510008C0682FF09C082E00E94760680918A06AE
:103520008770CC24C3948111C12C8C2F82958F700D
:10353000883009F404C1B8F58430D8F4823008F436
:1035400043C01C2F1F70C07FC03211F01295107F36
:10355000D13008F471C009F4B8C0D11409F4C2C064
:10356000011509F487C047C0C8010E941A06C82F78
:10357000AACF09F4C8C0C11409F418C180918A0601
:1035800080FD14C1F70115828695869586950E9467
:10359000C705C7015FDD80918A0686958695869569
:1035A0000E94D50503C1893009F459C18A5F8F7023
:1035B000823008F7D23F09F063C18C2F8F71D11090
:1035C0005CC10E94C705F0C01C2F1F70C03110F0F5
:1035D0001295107FD114B9F0111569F08D2F805E0E
:1035E000883010F0D11109C080918306812B80931F
:1035F00083060E94710D8D2F2FC080918D06812B27
:1036000080938D06F6CF8D2F0E94200E111509F4A0
:10361000B2CF8D2F805E883010F0D11104C0812F81
:103620000E94B30606C0109580918D068123809379
:103630008D060E94710D9FCF80918C0682FD16C071
:10364000D11469F0111539F080918306812B809394
:1036500083060E94710D80E00E94C50D8CCF80E032
:103660000E94200E111509F486CFD9CFD11499F0FC
:10367000013020F4812F0E945A0E7DCF09F07BCFBC
:1036800080918406912F9823191709F474CF812B08
:103690008093840670CF01116ECF812F0E94630E3C
:1036A00090918406812F892329F0812F8095892389
:1036B0008093840680918506912F982309F45BCF2F
:1036C000109518231093850656CFD11421F006309B
:1036D00008F051CFCFCF053008F04DCF812F0E9499
:1036E000630E49CF0115D1F3D93349F48FEF97EE2B
:1036F00023E0815090402040E1F700C000008D2F72
:103700000E94200E38CF8C2F86958695837081304D
:1037100060F009F030CF8D2F9C2F9370D11002C034
:1037200080E090E00E94A20A26CF8D2F9C2F9370FC
:10373000D11002C080E090E00E947B0A1CCF8C2F49
:10374000837009F046C0D1102FC04D2F4295469589
:103750004770440F440F2D2F2F7030E0042E02C00D
:10376000220F331F0A94E2F780E090E0D4FF09C0F3
:103770008FE090E002C0880F991F4A95E2F780958C
:103780009095C695C695C370C230D1F0C330A9F0EC
:103790004091860650918706C13069F0822B932BA9
:1037A000842395230E94BD050E94680A60E0C7013A
:1037B0000E94F008E2CC242B352B822B932BF2CFE6
:1037C000822B932B209186063091870682279327A0
:1037D000E9CFD11491F1C0FFE7CF4D2F4295469527
:1037E0004770440F440F2D2F2F7030E0042E02C07D
:1037F000220F331F0A94E2F780E090E0D4FF09C063
:103800008FE090E002C0880F991F4A95E2F78095FB
:103810009095C695C695C370C230C1F0C33099F07B
:103820004091880650918906C13059F0822B932B24
:10383000842395230E94C205B7CF823008F4B4CF09
:10384000CCCF242B352B822B932BF4CF822B932B95
:10385000209188063091890682279327EBCFCF707D
:10386000D11439F08C2F0E94C7058D2F0E945A0E5B
:103870009BCF8D2F0E94630E8C2F0E94D50594CF75
:1038800070F4D03FC9F0D13F91F0D11409F454C085
:10389000011509F44EC08D2F0E94C50D85CFD33F71
:1038A00011F1D43F91F790918C0692FD2AC08C2F94
:1038B0008F71D11411F385CED11499F0053008F031
:1038C00073CFCF7181E090E002C0880F991FCA9535
:1038D000E2F7EC0180918806909189068C279D275C
:1038E000A9CF0630ECCF80E090E0D11409F4A2CF4C
:1038F000CF7181E090E002C0880F991FCA95E2F76E
:1039000099CFD11461F08C2F8F7192FF5ACE982FDE
:10391000990F990F990F936090938A0652CE81E088
:103920000E947606023008F43FCF82E00E947606BD
:103930003BCF8C2F8F7145CE011579F0D93349F4E7
:103940008FEF97EE23E0815090402040E1F700C0D8
:1039500000008D2F0E94200E27CF8C2F8F718DCFCE
:1039600009F443C0F7019581911589F11092790608
:103970009E0130572332310598F484E090E00E9494
:103980008B2880938B0690938C06FE01E150F047C4
:10399000E232F10508F00DCCE651F74D0C944E28BB
:1039A00080918306C6312CE7D20709F0CECC8A7A03
:1039B00091E0811101C090E090937A06811509F49D
:1039C000B2CC85E30E94C90A0E94710DC7CBC631F3
:1039D0008CE7D80709F0ABCC80917A06811509F401
:1039E000A4CC85E30E94FD0AEFCF81E19BE0B0CB40
:1039F0008091CE06803170F48091CD06811551F012
:103A0000E0918F0620918E063091C9064091C8063C
:103A10002E1301C00895BF0187E0E89FF001112433
:103A2000DF01A057B94F14968C911497811551F16D
:103A300011968C911197831325C08C91841322C009
:103A400015968C91159781111DC012968D919D919F
:103A5000A091CA06B091CB068A1B9B0B883C9105AE
:103A600088F48091CE068F7080618093CE06EA56EE
:103A7000F94F80818F708061808388EC96E0EADA6C
:103A80000C946C066F5F7F4FFB01E770C1CFADE018
:103A9000B0E0EDE4FDE10C94EE278C0186E0F80146
:103AA000DE01189601900D928A95E1F7F801F580F4
:103AB000C48088EC882E86E0982E7090CC06711019
:103AC0001FC0C114D1F0F11409F415C1C8010E943E
:103AD0001509811509F40FC187E0F801D40101909F
:103AE0000D928A95E1F78C2D813031F48091C806D2
:103AF0009091C9060E940B097BDFFF24F39453C009
:103B0000E080A280B380D090CD068091CA069091CB
:103B1000CB069501281B390BD11409F4B5C0283CFC
:103B2000310508F08DC0C11441F39091C906C180E0
:103B30008091CE06803108F056C0C91213C0909112
:103B4000C8069E110FC0F11048C08F70806180932D
:103B5000CE0688EC96E07EDA8091CE06F801868368
:103B6000F12C21C0F11039C040E06C2D8E2D0E9447
:103B70004D0640E06C2D8E2D0E944D06F82E8111D1
:103B8000EFCF888599850E940B09292F22952F70E8
:103B9000903470F49F70223098F09115A9F0F801DC
:103BA0009681903188F48F2D2D96EDE00C940A28A3
:103BB0002A5F2F70223060F0C8014CDAFD2CF3CF61
:103BC000911511F0811579F3805E883060F3F4CFA0
:103BD000803F48F3815F8330F9CF8091CE068160CA
:103BE0008093CE06BDCFC91207C09091C8069E1122
:103BF00003C0F11409F469C0C8010E9415098115B8
:103C000009F479C0F11409F476C08091CE068032AF
:103C100070F02091C8063091C90629833A83AB829F
:103C2000BC827D821E828F83CE01019613DA87E0EB
:103C3000F801A8ECB6E001900D928A95E1F75CCF0F
:103C40008091CE06803148F488EC96E003DAF401E6
:103C500087E011928A95E9F783CFC11409F44DCF1B
:103C60002091C90691812913C7CF9091C8069E1152
:103C7000C3CFF110C1CF8683C801ECD9F40187E02E
:103C800011928A95E9F739CF283C310500F7C11424
:103C900009F433CFF11479F19091C9068181981319
:103CA00020C08091C8068E111CC08091CE0680FD78
:103CB0000FC0803168F08683807F803F39F0868135
:103CC000982F907F905F8F70892B8683C801C2D90F
:103CD00087E0F801A8ECB6E001900D928A95E1F733
:103CE0000CCFC8010E9415098111A1CF8091CE0689
:103CF00081608093CE06C801ADD9FFCEABE1B0E0C4
:103D0000E4E8FEE10C94F7274E8B5F8B688F798F88
:103D10008A8F192F9B8F911110928D061D8A86E034
:103D2000FE017696DE011F9601900D928A95E1F7CD
:103D30000A8D011561F00B8B1C8B61E0CE010F9693
:103D40000E94F00861E0CE010F960E94F0080B8BF4
:103D50001C8B87E0FE013F96DE01189601900D92C4
:103D60008A95E1F7CE01089692DE81112EC020914E
:103D70008E0630918F0687E0AE01485F5F4FFA01F3
:103D800047505109DA0101900D928A95E1F78C852F
:103D90008115D9F0822F90E08395877090E0AC0177
:103DA00034171506E1F097E0929FD0011124A05737
:103DB000B94F9E012F5F3F4FF90101900D929A95E7
:103DC000E1F740938E060E946C0680918F069091D9
:103DD0008E06891311C06B96E4E00C9413280E94A0
:103DE000680E10928E0610928F06E8ECF6E087E0DF
:103DF00011928A95E9F7E9CF27E0829FC00111244B
:103E00008057994F44DE811531F380918F06909150
:103E100090060196877080938F06D7CFA6E0B0E01A
:103E2000E4E1FFE10C94F7270E942F168C018091AA
:103E30003106909132068017910771F019821A822B
:103E40000E942F16BC0149815A8180E090E056DF24
:103E500000933106109332062696E4E00C94132862
:103E6000CDB7DEB728970FB6F894DEBF0FBECDBF33
:103E700085B7806885BF85B7806885BF84B7877F31
:103E800084BF0FB6F894A8958091600088618093F4
:103E90006000109260000FBE80E890E00FB6F894CA
:103EA00080936100909361000FBE81E08093440194
:103EB00080E499E08093A0029093A1020E948D0C6F
:103EC0000E943E0C8091E20084608093E20078942E
:103ED00080919B03811599F08091E9001091EC008D
:103EE0008F7010FB112717F9182B1092E9008091A1
:103EF000E80083FD0E94910E1F701093E90082E09C
:103F000084BD93E095BD9AEF97BD80936E001092AB
:103F10002D0610922E0610922F06109230068091D8
:103F2000D80080618093D8008AE18A95F1F700C0BB
:103F30008091D900182F117080FD04C00E948D0C53
:103F400010929B0310932B0610932C0610930501DF
:103F50001111DCD680912C0691E08927880F880FFB
:103F60008093220694E0981B909316068AE2E82E2E
:103F700082E0F82E0EE212E0F70181917F018F3F7F
:103F800011F00E9442090E151F05B1F70EE2E02E56
:103F900002E0F02E04E312E0F70181917F018F3FF0
:103FA00011F00E9442090E151F05B1F7EAE1F6E093
:103FB00088E011928A95E9F7E3E2F6E088E0119251
:103FC0008A95E9F780E090E00E948B28833E9E4F1F
:103FD00069F163EE7EEF80E090E00E94B92860E036
:103FE00082E090E00E949F2881E090E08093860626
:103FF0001092870661E083E00E949F2860E074E1F0
:1040000084E090E00E94B9280E946F1360E070E0A5
:10401000AB018FE090E00E94B12860E070E0AB015E
:1040200083E190E00E94B1280E94641382E090E056
:104030000E9483288093A40384E090E00E948B2850
:1040400080938B0690938C060E9444168FEF96E720
:1040500021E0815090402040E1F700C000000E9424
:104060004416E0912C0611E0E127EE0FEE0FF0E090
:10407000E65EF94F808181FF08C06FEF7FEF80E03F
:1040800090E00E94B9280E944F0B83E090E00E94CC
:10409000832890E00E94BD050E94420A1093980375
:1040A00048E050E067E170E08BE796E00E947328FB
:1040B0001092980380917B06843010F40E946F1355
:1040C00080912B068127880F8093D70580E8809305
:1040D000AF03B7D46BE070E089ED98E00E940E1555
:1040E0008115E9F18091D70565E070E081FDC2C0DE
:1040F00084ED98E00E940E15811589F16DE070E065
:1041000082EC98E00E940E15811549F10E94280B5F
:10411000DC01CB01805A9541AF4FBF4F8093DB0547
:104120009093DC05A093DD05B093DE05E7EDF3E0A9
:10413000DF0180E092E01D920197E9F7E093AD0383
:10414000F093AE038FEF9FEF8093D9059093DA053C
:1041500081E08093E2058093DF051092D80580917D
:104160002B06811101C0D5D586E091E080935306DE
:1041700090935406D12CC12E80919B0300E110E452
:10418000B2E1FB2E853009F4D1C00E944416F5EA55
:10419000AF2EF3E0BF2EAAE18A2EA6E09A2EF401FC
:1041A000D5019D9180812DEA33E02A173B0709F460
:1041B000C7C031969817A9F320902B06ECE9EE2E94
:1041C000E3E0FE2E712CF40161904F01F501419066
:1041D0005F01461409F441C0462400E010E0552474
:1041E0005394852D842189F1352C36202114F9F042
:1041F000F701808190E09601002E01C0220F0A9401
:10420000EAF78223892B99F409837A820E942F1678
:104210008B839C8381E08D8391E0311001C090E01D
:104220009E8349815A816B817C818D8167DD31104C
:104230000CC08C2D002E01C0880F0A94EAF7982F2D
:104240009095F701808189238083550C0F5F1F4F64
:104250000630110531F6F501629273948FEFE81A7A
:10426000F80A872D883009F0AECF0E94340BBB24AA
:10427000B3946AC08FEC98E03DCF80919B0384306B
:1042800039F10E9485130E943E151092990388E12E
:1042900090E00FB6F894A895809360000FBE10933D
:1042A000600083B7817F846083BF83B7816083BFF1
:1042B0007894889583B78E7F83BF0FB6F894A895BE
:1042C00080916000886180936000109260000FBE52
:1042D0000E944416EAE1F6E0ACE9B3E080E0219107
:1042E0002D9391E0211101C090E0892B22E236E06C
:1042F0002E173F07A1F78115C9F080919A03811508
:10430000A9F009BDF9BC09B400FEFDCF8091D80029
:104310008F7D8093D8008091E00082608093E000E0
:104320008091E00081FDFCCF0E94680E80919B038C
:10433000853009F4A2CF0E94680E0E94680A25CF3A
:1043400098133ACF6BDDB12C0E9485138091E20562
:10435000811509F467C10091E0051091E1050E9403
:104360002F16801B910BC29708F481C00E942F1654
:104370008093E0059093E10587ED93E08093AD0392
:104380009093AE0380912B06811509F49BC18DE4B7
:1043900099E00E94F81530918906832F90E028E07B
:1043A000311104C020E080918806932FAC0174E0A5
:1043B000569547957A95E1F74115510511F02C5F17
:1043C000CA01AC015695479556954795411551053B
:1043D00011F02E5FCA0196958795820F823009F4FD
:1043E00038C108F02EC1811131C185E499E00E94E5
:1043F000051680917806805D0E944F158AE299E04B
:104400000E94F81580917706805D0E944F1586E224
:1044100099E00E94F81540907506509076068091BC
:104420001001909111014816590609F018C18091A8
:10443000B603803209F013C1E0EBF3E08F01819104
:104440008032E1F3F80101900020E9F731977F0114
:104450000E151F0508F430C184E299E00E94F8159A
:10446000809145010E944F1581E00E94CB158091FB
:10447000D9059091DA05892B09F4B9C08091E2053C
:10448000811509F4B4C08091D8058111B0C00E9493
:104490001B158091D9059091DA05009709F4A7C002
:1044A00080FBEE24E0F8F12C612C80FD0DC06394BC
:1044B0007601062C02C0EE0CFF1C0A94E2F79C0168
:1044C0002E213F21232B99F38091D70580FFFFC038
:1044D000962D990F990F990F392F395F80E023E0BE
:1044E00090931401809317013093150120931801C4
:1044F00024E630E047E050E062E171E088E7D4D2A2
:10450000892B09F074C080E2689E300111248091EB
:10451000D70580FFEEC0E7EBF3E080E211928A95C9
:10452000E9F784E292E08F83988700E212E068E284
:1045300072E0AF81B885ED91AF83B887D8018D91D6
:104540008D011301280E311CF0E0E954FC4F20E0EE
:1045500030E087E0882E821AAC2C022E01C0AA0C13
:104560000A94EAF7C10189529C4F2C0190E0D201D4
:104570008D912D018A21482D491B477050E0A82FAD
:10458000042E01C0AA0F0A94EAF7519541955109EA
:10459000477001C086954A95EAF78A2B4081842BA3
:1045A00080839F5F983019F72F5F3F4F31962830F7
:1045B000310579F68F8198856817790709F0B9CFA9
:1045C00004E610E020E230E047EB53E060E488E7E7
:1045D000FBD2892B61F4E094F0948091D9059091FD
:1045E000DA05E822F922E092D905F092DA05809105
:1045F000DF058115B9F00E94280B0091DB051091B1
:10460000DC052091DD053091DE05DC01CB01801B4E
:10461000910BA20BB30B8F3F9F4FAF4FBF4710F4CF
:104620000E943E15B1100E941B150E94680A9091CD
:10463000E305891709F4A0CD8093E3050E94280BB8
:104640009BCD833049F08CE299E0D1CE8FE399E0A5
:10465000CECE89E399E0CBCE82E399E0C8CE4092FA
:1046600010015092110180E28093B603612C712CED
:104670001092B50335EBE32E33E0F32E8301B20144
:10468000C3012AE030E040E050E0E6D4605D6033F2
:1046900041F40115110529F045284628472809F459
:1046A00060E2F70162937F0129013A010F5F1F4F1A
:1046B0000530110521F7C0CEF80181918F010E94CC
:1046C0004F15C6CE84EE98E00E94F815D0CE20E2B9
:1046D000629EC0011124880F492F441F550B51952C
:1046E000242F962D9295990F9076392F315E842F35
:1046F000F7CEA30149525C4F04E610E020E230E01F
:1047000065CF78941F921FB61F9211248F939F93A9
:10471000AF93BF938091DD029091DE02A091DF0202
:10472000B091E0020196A11DB11D8093DD0290932E
:10473000DE02A093DF02B093E002BF91AF919F91A0
:104740008F911F901FBE1F9018951F920F920FB64A
:104750000F9211242F933F934F935F936F937F9307
:104760008F939F93AF93BF93EF93FF938091E1005B
:1047700082FF09C08091E20082FF05C08091E100C4
:104780008B7F8093E1008091DA0080FF24C08091CC
:10479000D80080FF20C08091DA008E7F8093DA00FD
:1047A0008091D90080FFA9C080E189BD82E189BDE7
:1047B00009B400FEFDCF81E080939B038091CC0281
:1047C000811109C00E948D0C0E943E0C8091E20074
:1047D00084608093E2008091E10080FF1AC08091A4
:1047E000E20080FF16C08091E2008E7F8093E2009D
:1047F0008091E20080618093E2008091D800806225
:104800008093D80019BC85E080939B0383E080935C
:1048100044018091E10084FF2FC08091E20084FF79
:104820002BC080E189BD82E189BD09B400FEFDCFC6
:104830008091D8008F7D8093D8008091E1008F7E99
:104840008093E1008091E2008F7E8093E20080916E
:10485000E20081608093E2008091CB02811509F42F
:1048600052C084E080939B0380919B03843009F0C5
:1048700052C082E0809344018091E10083FF2CC00C
:104880008091E20083FF28C08091E100877F8093C0
:10489000E10082E080939B031092CB028091E100C3
:1048A0008E7F8093E1008091E2008E7F8093E20012
:1048B0008091E20080618093E20042E060E080E06D
:1048C0000E94BE0B8091F00088608093F00081E030
:1048D0008093440180934301FF91EF91BF91AF9189
:1048E0009F918F917F916F915F914F913F912F9108
:1048F0000F900FBE0F901F90189519BC10929B033C
:104900001092CC0268CF8091E30087FF02C083E061
:10491000A9CF81E0A7CF81E0ADCF1F920F920FB654
:104920000F9211241F932F933F934F935F936F9395
:104930007F938F939F93AF93BF93CF93DF93EF9327
:10494000FF93E9EEF0E080811091EC008F7010FB96
:10495000112717F9182B1082C0EFD0E08881877FCC
:10496000888378940E94910EE9EEF0E010828881AD
:10497000886088831F701083FF91EF91DF91CF9142
:10498000BF91AF919F918F917F916F915F914F9167
:104990003F912F911F910F900FBE0F901F90189570
:1049A000EF92FF921F93CF93DF93182FEB0110929A
:1049B000BC0084EA8093BC000E942F167C01809189
:1049C000BC0087FF26C08091B900887F883029F01D
:1049D0008091B900887F803189F51093BB0084E80D
:1049E0008093BC000E942F167C018091BC0087FF41
:1049F0001EC02091B900287F80E090E0283189F026
:104A000081E090E0203409F480E09195819591094E
:104A100008C0C7010E943B16C817D90780F68EEF61
:104A20009FEFDF91CF911F91FF90EF900895C70105
:104A30000E943B16C817D907C0F6F1CF8FEF9FEF42
:104A4000F0CF1092B9008CE08093B80008950F93D6
:104A50001F93CF93DF93EB018093BB0084E8809397
:104A6000BC000E942F168C018091BC0087FF10C0F3
:104A70002091B900287F81E090E0283209F480E09D
:104A8000919581959109DF91CF911F910F91089593
:104A9000CF3FDC0749F3C8010E943B16C817D9076E
:104AA00018F78EEF9FEFEFCFA0E0B0E0E9E5F5E279
:104AB00095C2982E862E772E6A0179010E942F16B4
:104AC0005C0184E1E816F10410F18FEFE816FE04B2
:104AD00009F1C70164E170E068D2162F072F612F3A
:104AE000702F892D5DDFEC01892BB1F4082D172D76
:104AF000C00ED11E0C151D0511F02097C1F084E9E0
:104B00008093BC00CE01CDB7DEB7EDE083C211E0EB
:104B100000E0E5CF15E0FCCF8FEFE816FE04F9F2D8
:104B2000C5010E943B16E816F906C8F6DFCFB701AB
:104B3000F80181918F018BDFEC01DCCFA0E0B0E0C8
:104B4000E3EAF5E24BC2982E862E772E6A018901A0
:104B50000E942F165C010431110500F10F3F100770
:104B600001F1C80164E170E020D2EB01BE01892DA2
:104B700017DF7C01892BB9F4C82DD72DCC0EDD1E93
:104B8000CC15DD0519F0E114F104B9F084E9809346
:104B9000BC00C701CDB7DEB7EDE03CC2C1E0D0E05C
:104BA000E5CFC5E0FCCF0F3F100701F3C5010E9420
:104BB0003B1608171907D0F6DFCFFE018491B80124
:104BC00046DF7C012196DCCFA0E0B0E0E9EEF5E223
:104BD00004C2982E862E742E652E6901E8010E946B
:104BE0002F165C010431110508F10F3F100711F178
:104BF000C80164E170E0D9D1F62EE72E6F2D7E2D2D
:104C0000892DCEDE8C01892BC1F0CF3FDC07B1F3BB
:104C1000C5010E943B16C817D90780F784E9809325
:104C2000BC00C801CDB7DEB7EEE0F3C1FF24F394BA
:104C3000E12CE4CF85E0F82EFBCFBE01882D07DF05
:104C40008C01E72CF62CCE0CDF1CEC14FD0431F3A8
:104C50000115110519F7BE01F70181917F01F7DEFA
:104C60008C01F3CF8EE14A9B02C08150E1F74A9B51
:104C7000FECF08955A9880E28A95F1F75A9A0895DE
:104C8000FC018BE08A95F1F728E080E090E031E0CC
:104C900040E14A95F1F7880F4A9B02C08160932753
:104CA00042E04A95F1F7000040E14A95F1F72150C2
:104CB00079F720E12A95F1F729B132E03A95F1F739
:104CC000000030E13A95F1F731E022FD9327208191
:104CD000920F90830895A1E0B0E0E0E7F6E285C18D
:104CE00019828C017C01E60EF11CBCDFCE0101961D
:104CF000C7DFF80181938F01EE15FF05B1F781E061
:104D00009981911180E02196E6E08BC1529A5A9ADE
:104D1000089552985A9AEA9AE9E6F0E080818F7CE9
:104D2000808308956150770B91E001C0990F6A95D7
:104D3000EAF7692F90E021E0611108C0911591F028
:104D40005A9A80E28A95F1F75A980895362F3823B7
:104D500039F05A9A922730E23A95F1F76695ECCFFE
:104D60005A98F9CF5A98EDCFFF920F931F93CF9394
:104D7000DF93EC018C01060F111D8991F82E7ADF6B
:104D800068E08F2DCFDFC017D107B9F7CDB7DEB7F9
:104D9000E5E048C11F920F920FB60F9211240F93B6
:104DA0001F932F933F934F935F936F937F938F93B3
:104DB0009F93AF93BF93EF93FF93CF93DF930F92A4
:104DC000CDB7DEB719824EDFCE01019659DF082F2D
:104DD000069506950695282F22952570902F95709B
:104DE000920F292F237096959695920F982797707A
:104DF0008981892B09F055C0063008F052C080E146
:104E00008A95F1F75A9A529A82E08A95F1F700C092
:104E10005A9888E0089F80011124D801A75EBE4FF0
:104E20001696ED91FD911897309791F060912802B8
:104E30007091290214962D913D91260F371F1597D9
:104E40008D919D91680F791F4C9113978C910995C5
:104E5000F801E75EFE4F6381611549F02091280259
:104E60003091290284819581820F931F7DDF02DFBB
:104E700080E18A95F1F75A9852985A9A80E18A957A
:104E8000F1F7F801E75EFE4F6081611549F020916E
:104E900028023091290281819281820F931F1BDFAA
:104EA000E1DE0F90DF91CF91FF91EF91BF91AF9134
:104EB0009F918F917F916F915F914F913F912F9132
:104EC0001F910F910F900FBE0F901F9018950F9389
:104ED0001F93CF93DF93EC0106970CF05EC0F8941C
:104EE000529A5A9885E08A95F1F700009C2F969582
:104EF00095708C2F8570980F892F83709695969555
:104F0000292F93E0CC0FDD1F9A95E1F7280F822F10
:104F10008C2B082FAFDE00C068E0802F03DF80E11C
:104F20008A95F1F752985A9A4A9B30C087E090E0F0
:104F30004A992EC0FE01E75EFE4F6381611559F06C
:104F4000209128023091290284819581820F931F3C
:104F5000C2DE8115F9F086DE80E28A95F1F75A9873
:104F6000529A80E18A95F1F7C75EDE4F688161153C
:104F700049F0209128023091290289819A81820F7B
:104F8000931FF2DE77DE789481E008C000C0CCCFBA
:104F9000019749F4529A5A9A789480E0DF91CF9120
:104FA0001F910F91089500C0C3CFAA1BBB1B51E1F5
:104FB00007C0AA1FBB1FA617B70710F0A61BB70B89
:104FC000881F991F5A95A9F780959095BC01CD012E
:104FD00008952F923F924F925F926F927F928F929D
:104FE0009F92AF92BF92CF92DF92EF92FF920F9378
:104FF0001F93CF93DF93CDB7DEB7CA1BDB0B0FB682
:10500000F894DEBF0FBECDBF09942A88398848883E
:105010005F846E847D848C849B84AA84B984C884D4
:10502000DF80EE80FD800C811B81AA81B981CE0FCB
:10503000D11D0FB6F894DEBF0FBECDBFED010895B0
:10504000992778E0880F991F961708F0961B881FFC
:105050007A95C9F780950895A1E21A2EAA1BBB1B69
:10506000FD010DC0AA1FBB1FEE1FFF1FA217B30734
:10507000E407F50720F0A21BB30BE40BF50B661F4A
:10508000771F881F991F1A9469F76095709580950E
:1050900090959B01AC01BD01CF010895EE0FFF1F5C
:1050A0000590F491E02D0994FB01DC0102C005900C
:1050B0000D9241505040D8F70895FB01DC0104C027
:1050C0008D910190801921F441505040C8F7881B00
:1050D000990B0895FB01DC0102C001900D92415033
:1050E0005040D8F70895DC01CB01FC01F999FECFBF
:1050F00006C0F2BDE1BDF89A319600B40D92415060
:105100005040B8F70895F999FECF92BD81BDF89A45
:10511000992780B50895A8E1B0E042E050E0E5CFDE
:10512000DC01A40FB51F4150504040F0CB01840F6B
:10513000951F2E9105D041505040D8F70895262F45
:10514000F999FECF92BD81BDF89A019700B402167D
:1051500039F01FBA20BD0FB6F894FA9AF99A0FBE2B
:1051600008950396272FECDFEADF252FE9DF242FB0
:10517000E7CF0196272FE4DFE2CFF894FFCF6E0F41
:10518000940F9A0F940F9A0FE80F0A109A0FFA10C3
:105190000711C618CA18AA18C218CE18D218D618DD
:1051A000CD19DC19B119B419E619B919EB19BE19E1
:1051B000F019C319F519C819FA19FF19041AB11908
:1051C000B419E619B919EB19BE19F019C319F51973
:1051D000C819FA191D1985192519EF18F318291975
:1051E000F7182D19391903197E1907193D190B19CB
:1051F000411966190F1945196D1915194B195319CC
:10520000FB183119FF18351919194F195D1976193D
:085210007C19E91821198C1921
:1052180000FF00FFFF01250B3E0D510D600B560DE1
:10522800FF000021007F22000300000001000000B1
:105238000000000004010000000405000000000058
:10524800000409000000000000090D000000000033
:105258000000000100200300FF78FF050200181776
:1052680012110A09191613100B081A15140F0C0736
:10527800FFFFFF0E0D0633322D2C252434312E2B43
:10528800262335302F2A2722FFFFFF2928215510F2
:10529800320D10141026323055345F3F55275515FE
:1052A8005504440244134425503A3C373223320D06
:1052B8003200210321142125102A10181007000795
:1052C800001800298B10AE0DD014D026AE308B34C8
:1052D800813F8B278B158B049C029C139C25903A4D
:1052E800A437AE23AE0DAE00BF03BF14BF25D02A2E
:1052F800D018D007E007E018E029020202020202F3
:10530800010404040404040101040404040404045E
:10531800040401010102020202020201040404045D
:105328000404010104040404040404040401010144
:105338000008101818100800F805946697C6F4F5C8
:10534800F6F73133E200E900EA00B500B600B7002D
:10535800CD008301CC008A0192019401210223022D
:1053680024022502260227022A02B300B4006F0095
:1053780070009F01CB019F02A002E200E900EA0051
:10538800B500B600B700CD008301CC008A019201B8
:1053980094012102230224022502260227022A025E
:1053A800B300B4006F0070009F01CB019F02A00200
:00000001FF
